AXCG
HFDTE280906
HFPLTPilot:
HFTZOTimezone:2
HFSITSite:
HPGTYGliderType:
HPGIDGliderID:
HFDTM100DATUM:WGS-1984
HFCIDCOMPETITIONID:
HFCCLCOMPETITIONCLASS:
LXCG     COLOR:255000000
LXCG POINTSCOUNT:262
LXCG COORDBOX:7.218083,46.728257,7.624780,47.098958
I033638WVE3941WDI4243SIU
B1441074645575N00735850EA0000000000000000-1
LXCG     TRX0
B1447354645571N00735849EA000000055700000009
B1447364645570N00735848EA000000055700000009
B1447374645569N00735847EA000000055700000009
B1447384645568N00735847EA000000055700000009
B1447394645566N00735847EA000000055700000009
B1447404645565N00735849EA000000055700000009
B1447444645559N00735854EA000000055700000009
B1447454645558N00735855EA000000055700000009
B1447494645551N00735858EA000000055700000009
B1447504645549N00735860EA000000055700000009
B1448064645519N00735894EA000000055700000008
B1449464645306N00736156EA000000056500000008
B1449474645304N00736160EA000000056400000008
B1449484645302N00736164EA000000056300000008
B1450044645274N00736228EA000000056000000008
B1450054645272N00736231EA000000055900000008
B1450064645271N00736233EA000000055900000008
B1450074645269N00736235EA000000056000000008
B1450084645267N00736236EA000000055900000008
B1450094645265N00736236EA000000055900000008
B1450104645264N00736236EA000000056000000008
B1450114645263N00736235EA000000056000000008
B1455224645262N00736234EA000000056000000007
B1455234645262N00736231EA000000056100000007
B1455244645261N00736231EA000000056100000007
B1455284645254N00736229EA000000056000000007
B1455294645251N00736230EA000000056000000007
B1455304645249N00736231EA000000056000000007
B1455314645247N00736233EA000000056000000007
B1455324645245N00736235EA000000056000000007
B1455404645225N00736253EA000000056100000007
B1455414645222N00736254EA000000056100000007
B1455424645220N00736255EA000000056100000007
B1455434645217N00736254EA000000056000000007
B1455444645215N00736254EA000000056000000007
B1455454645213N00736252EA000000056000000007
B1455464645211N00736250EA000000055900000007
B1455474645209N00736248EA000000055900000007
B1455504645204N00736240EA000000055800000007
B1455514645203N00736238EA000000055900000007
B1455524645202N00736235EA000000055900000007
B1455534645202N00736233EA000000055900000007
B1455544645203N00736231EA000000055800000007
B1455554645203N00736231EA000000055800000007
B1455564645204N00736230EA000000055800000007
B1455574645204N00736229EA000000055800000007
B1455594645205N00736228EA000000055900000007
B1457034645997N00735394EA000000071600000007
B1457044646009N00735372EA000000072000000007
B1457054646019N00735347EA000000072300000007
B1457074646031N00735292EA000000072800000007
B1457094646034N00735231EA000000073200000007
B1457114646027N00735169EA000000073600000007
B1457134646012N00735109EA000000074200000007
B1457154645993N00735053EA000000074900000007
B1457184645957N00734977EA000000076100000007
B1457204645928N00734930EA000000076900000007
B1457224645896N00734889EA000000077600000007
B1457244645859N00734855EA000000078400000007
B1457264645819N00734829EA000000079100000007
B1457284645776N00734811EA000000079700000007
B1457304645731N00734801EA000000080400000007
B1457334645663N00734797EA000000081700000007
B1457354645619N00734802EA000000082600000007
B1457384645554N00734821EA000000083700000007
B1457404645512N00734840EA000000084400000007
B1457434645452N00734880EA000000085500000007
B1457514645294N00735016EA000000086700000007
B1458374644272N00735963EA000000086700000006
B1458524643984N00736305EA000000085500000007
B1459034643782N00736584EA000000084500000006
B1459054643749N00736640EA000000084600000007
B1459074643722N00736700EA000000084600000007
B1459094643703N00736764EA000000084500000007
B1459104643699N00736799EA000000084400000007
B1459124643695N00736869EA000000084000000006
B1459144643700N00736938EA000000083500000007
B1459154643708N00736971EA000000083400000007
B1459174643733N00737029EA000000083100000007
B1459204643780N00737103EA000000082500000007
B1459254643864N00737207EA000000082400000007
B1459374644062N00737423EA000000081100000006
B1459394644096N00737450EA000000080800000007
B1459414644132N00737469EA000000080700000007
B1459424644151N00737474EA000000080600000007
B1459434644173N00737473EA000000080600000007
B1459454644213N00737461EA000000080300000007
B1459474644247N00737436EA000000079600000007
B1459484644262N00737418EA000000079200000007
B1501594645983N00735379EA000000071400000007
B1502004645995N00735358EA000000071900000007
B1502024646013N00735311EA000000072900000007
B1502034646019N00735284EA000000073300000007
B1502054646026N00735227EA000000074100000007
B1502074646028N00735168EA000000074700000007
B1502094646024N00735109EA000000075300000007
B1502114646014N00735050EA000000075900000007
B1502134645998N00734995EA000000076800000006
B1502164645963N00734919EA000000078100000007
B1502184645935N00734874EA000000079000000007
B1502204645903N00734835EA000000079900000007
B1502224645865N00734804EA000000080900000007
B1502244645825N00734780EA000000081900000007
B1502274645762N00734755EA000000083000000007
B1502294645718N00734746EA000000083700000007
B1502314645674N00734745EA000000084500000007
B1502334645629N00734750EA000000085300000007
B1502364645564N00734771EA000000086300000007
B1502384645522N00734792EA000000086900000007
B1502414645462N00734834EA000000087800000007
B1502444645403N00734887EA000000088200000007
B1503474644059N00736317EA000000087100000006
B1503534643951N00736460EA000000086400000007
B1504034643773N00736716EA000000085800000007
B1504044643759N00736745EA000000085800000007
B1504064643735N00736808EA000000085700000007
B1504084643724N00736877EA000000085400000007
B1504104643721N00736950EA000000085100000007
B1504124643729N00737019EA000000084700000007
B1504144643750N00737080EA000000084400000007
B1504164643779N00737131EA000000084300000007
B1504214643862N00737242EA000000084100000007
B1504324644037N00737451EA000000083600000007
B1504334644054N00737465EA000000083500000007
B1504354644092N00737482EA000000083200000007
B1504364644112N00737486EA000000083100000007
B1504384644152N00737482EA000000082700000007
B1504394644171N00737475EA000000082500000007
B1504414644206N00737448EA000000082000000007
B1504434644237N00737414EA000000081400000007
B1506414645730N00735629EA000000065600000007
B1506424645746N00735617EA000000066100000007
B1506544645941N00735501EA000000069500000007
B1507064646156N00735402EA000000072400000007
B1507124646274N00735367EA000000074200000007
B1507334646708N00735258EA000000081800000007
B1507344646727N00735247EA000000082100000007
B1507374646783N00735205EA000000083300000007
B1507394646818N00735170EA000000084100000007
B1507434646884N00735089EA000000085600000007
B1507494646973N00734954EA000000088000000007
B1507574647078N00734762EA000000091200000007
B1508064647186N00734507EA000000091700000008
B1508334647492N00733721EA000000101400000008
B1508354647509N00733660EA000000102100000008
B1509024647715N00732797EA000000110800000008
B1509044647726N00732725EA000000111000000008
B1510424648317N00729446EA000000137200000009
B1510524648415N00729077EA000000136500000009
B1511274648810N00727864EA000000137500000009
B1511504649102N00727109EA000000138400000009
B1511534649149N00727015EA000000138100000008
B1511584649238N00726865EA000000137600000009
B1512194649614N00726273EA000000139700000009
B1512204649628N00726241EA000000139600000009
B1513334650688N00723949EA000000140500000009
B1513364650741N00723861EA000000140300000009
B1513454650912N00723614EA000000141100000009
B1513504651017N00723493EA000000141600000009
B1513584651200N00723319EA000000141800000009
B1514124651527N00723026EA000000142700000009
B1514134651546N00722999EA000000142800000009
B1514164651598N00722912EA000000142800000009
B1514184651627N00722848EA000000142700000008
B1514214651664N00722746EA000000142300000009
B1514234651683N00722674EA000000142000000009
B1515114652098N00720922EA000000141300000009
B1515124652111N00720888EA000000141200000009
B1515194652225N00720655EA000000139900000009
B1515404652612N00719982EA000000136700000009
B1515524652877N00719608EA000000134700000009
B1515584653017N00719443EA000000134800000009
B1519354658361N00713223EA000000100100000009
B1519364658388N00713201EA000000100000000009
B1519394658473N00713144EA000000099800000009
B1519424658564N00713103EA000000099300000009
B1519444658627N00713089EA000000098700000009
B1519464658692N00713085EA000000098100000009
B1519474658724N00713086EA000000097900000009
B1519504658822N00713103EA000000097000000009
B1519524658886N00713126EA000000096500000009
B1520194659713N00713532EA000000092500000009
B1520264659913N00713669EA000000091700000009
B1521434701936N00715247EA000000087700000009
B1521454701984N00715296EA000000087600000008
B1521494702073N00715403EA000000087500000009
B1521524702132N00715494EA000000087300000009
B1521564702202N00715628EA000000086900000009
B1522144702481N00716269EA000000086100000009
B1522324702749N00716911EA000000085500000009
B1522334702768N00716942EA000000085300000009
B1522364702831N00717028EA000000085100000008
B1522384702877N00717078EA000000085000000009
B1522404702925N00717122EA000000084900000009
B1522424702977N00717157EA000000084700000009
B1522444703031N00717183EA000000084400000009
B1522464703088N00717201EA000000083900000009
B1522494703176N00717212EA000000083000000009
B1522504703205N00717211EA000000082800000009
B1522554703353N00717187EA000000082800000009
B1523024703549N00717121EA000000083100000009
B1523094703745N00717072EA000000082900000009
B1523114703801N00717068EA000000082600000009
B1523134703859N00717067EA000000082200000009
B1523144703888N00717068EA000000082000000009
B1523214704095N00717093EA000000079800000009
B1523254704212N00717127EA000000079000000009
B1523324704414N00717215EA000000077700000009
B1523544705028N00717540EA000000076300000009
B1523554705056N00717544EA000000076200000009
B1523594705172N00717550EA000000075900000009
B1524004705201N00717548EA000000075800000009
B1524044705315N00717523EA000000075500000009
B1524064705370N00717501EA000000075500000009
B1524094705449N00717457EA000000075400000009
B1524124705524N00717401EA000000075300000009
B1524164705618N00717313EA000000074900000009
B1524204705706N00717210EA000000074100000009
B1524244705786N00717093EA000000073300000009
B1524284705856N00716962EA000000072500000009
B1524304705887N00716892EA000000072100000009
B1524334705922N00716779EA000000071800000009
B1524344705929N00716740EA000000071800000009
B1524364705937N00716659EA000000072000000009
B1524384705934N00716578EA000000072200000009
B1524404705916N00716501EA000000072400000009
B1524424705889N00716432EA000000072600000009
B1524454705838N00716343EA000000072100000009
B1524484705777N00716265EA000000071200000009
B1525194705172N00715545EA000000070900000009
B1525204705151N00715528EA000000071000000009
B1525224705108N00715499EA000000071000000009
B1525234705085N00715488EA000000071000000009
B1525254705037N00715476EA000000071000000009
B1525264705012N00715475EA000000070900000009
B1525284704963N00715486EA000000070300000009
B1525294704941N00715499EA000000070000000009
B1525314704900N00715536EA000000069400000009
B1525334704868N00715589EA000000068800000009
B1525534704592N00716083EA000000064400000009
B1525544704584N00716110EA000000064200000009
B1525564704577N00716167EA000000063900000009
B1525574704579N00716195EA000000063700000009
B1525594704594N00716248EA000000063100000009
B1526004704605N00716271EA000000062800000009
B1526024704632N00716311EA000000061900000009
B1527204705417N00717494EA000000043700000009
B1527214705419N00717497EA000000043700000009
B1527224705422N00717499EA000000043700000009
B1527234705424N00717499EA000000043700000009
B1527254705428N00717500EA000000043700000009
B1527264705430N00717499EA000000043700000009
B1527294705433N00717498EA000000043700000009
B1527364705442N00717491EA000000043700000009
B1527374705443N00717490EA000000043700000009
B1527384705444N00717490EA000000043700000009
B1527394705445N00717490EA000000043700000009
B1527404705446N00717491EA000000043700000009
B1527414705446N00717491EA000000043700000009
B1529314705446N00717490EA000000043700000009
B1529324705448N00717488EA000000043100000009
LXCG     VERSION:6.33.d
GAA23DE9693406FD8C13FE512FF97950C72E75FC1